:060000000A128A110C280F
:10000800FE00030EF2000A08F3000A128A116E2895
:100018000A128A110F28F90183010A128A114D2840
:1000280010308316031788002030831603138500C9
:1000380087018801831203138501860187018801DE
:10004800831603130F088F3960388F000F1481123D
:1000580081110730810464308312031381000B116E
:100068008B168B171F083F3940389F001F08C3396C
:1000780010389F00A630F400F40B402800008316C7
:1000880003139F131F129F12831203131F140C13C1
:1000980008000A128A1114200A128A118312031303
:1000A8009F140C1F5828592855281E08F500F601DA
:1000B8007508F7007608F800770888000730F6001A
:1000C8007D30F500F50B6628F60B662852280A12D3
:1000D8008A110C280B1D712872288428013083127C
:1000E800031385060B110D30F100FB30F000F00B07
:1000F8007B28F10B7B28802864308312031381004E
:0E01080073088A00720E8300FE0E7E0E090040
:08400000FF3FFF3FFF3FFF3FC0
:04400E00D520FF3F7B
:00000001FF
